{
  "contractName": "PharmaceuticalSupplyChain",
  "abi": [
    {
      "inputs": [],
      "stateMutability": "nonpayable",
      "type": "constructor"
    },
    {
      "inputs": [],
      "name": "productCounter",
      "outputs": [
        {
          "internalType": "uint256",
          "name": "",
          "type": "uint256"
        }
      ],
      "stateMutability": "view",
      "type": "function",
      "constant": true
    },
    {
      "inputs": [
        {
          "internalType": "uint256",
          "name": "",
          "type": "uint256"
        }
      ],
      "name": "products",
      "outputs": [
        {
          "internalType": "uint256",
          "name": "productId",
          "type": "uint256"
        },
        {
          "internalType": "string",
          "name": "name",
          "type": "string"
        },
        {
          "internalType": "string",
          "name": "manufacturer",
          "type": "string"
        },
        {
          "internalType": "uint256",
          "name": "quantity",
          "type": "uint256"
        },
        {
          "internalType": "enum PharmaceuticalSupplyChain.Participant",
          "name": "currentLocation",
          "type": "uint8"
        },
        {
          "internalType": "address",
          "name": "owner",
          "type": "address"
        }
      ],
      "stateMutability": "view",
      "type": "function",
      "constant": true
    },
    {
      "inputs": [],
      "name": "shipmentCounter",
      "outputs": [
        {
          "internalType": "uint256",
          "name": "",
          "type": "uint256"
        }
      ],
      "stateMutability": "view",
      "type": "function",
      "constant": true
    },
    {
      "inputs": [
        {
          "internalType": "uint256",
          "name": "",
          "type": "uint256"
        }
      ],
      "name": "shipments",
      "outputs": [
        {
          "internalType": "uint256",
          "name": "shipmentId",
          "type": "uint256"
        },
        {
          "internalType": "uint256",
          "name": "productId",
          "type": "uint256"
        },
        {
          "internalType": "enum PharmaceuticalSupplyChain.Participant",
          "name": "origin",
          "type": "uint8"
        },
        {
          "internalType": "enum PharmaceuticalSupplyChain.Participant",
          "name": "destination",
          "type": "uint8"
        },
        {
          "internalType": "string",
          "name": "departureDate",
          "type": "string"
        },
        {
          "internalType": "string",
          "name": "expectedArrivalDate",
          "type": "string"
        }
      ],
      "stateMutability": "view",
      "type": "function",
      "constant": true
    },
    {
      "inputs": [
        {
          "internalType": "address",
          "name": "",
          "type": "address"
        }
      ],
      "name": "users",
      "outputs": [
        {
          "internalType": "address",
          "name": "userAddress",
          "type": "address"
        },
        {
          "internalType": "enum PharmaceuticalSupplyChain.Role",
          "name": "role",
          "type": "uint8"
        }
      ],
      "stateMutability": "view",
      "type": "function",
      "constant": true
    },
    {
      "inputs": [
        {
          "internalType": "address",
          "name": "_userAddress",
          "type": "address"
        },
        {
          "internalType": "enum PharmaceuticalSupplyChain.Role",
          "name": "_role",
          "type": "uint8"
        }
      ],
      "name": "addUser",
      "outputs": [],
      "stateMutability": "nonpayable",
      "type": "function"
    },
    {
      "inputs": [
        {
          "internalType": "string",
          "name": "_name",
          "type": "string"
        },
        {
          "internalType": "string",
          "name": "_manufacturer",
          "type": "string"
        },
        {
          "internalType": "uint256",
          "name": "_quantity",
          "type": "uint256"
        },
        {
          "internalType": "enum PharmaceuticalSupplyChain.Participant",
          "name": "_currentLocation",
          "type": "uint8"
        }
      ],
      "name": "addProduct",
      "outputs": [],
      "stateMutability": "nonpayable",
      "type": "function"
    },
    {
      "inputs": [
        {
          "internalType": "uint256",
          "name": "_productId",
          "type": "uint256"
        },
        {
          "internalType": "enum PharmaceuticalSupplyChain.Participant",
          "name": "_origin",
          "type": "uint8"
        },
        {
          "internalType": "enum PharmaceuticalSupplyChain.Participant",
          "name": "_destination",
          "type": "uint8"
        },
        {
          "internalType": "string",
          "name": "_departureDate",
          "type": "string"
        },
        {
          "internalType": "string",
          "name": "_expectedArrivalDate",
          "type": "string"
        }
      ],
      "name": "addShipment",
      "outputs": [],
      "stateMutability": "nonpayable",
      "type": "function"
    },
    {
      "inputs": [
        {
          "internalType": "uint256",
          "name": "_productId",
          "type": "uint256"
        },
        {
          "internalType": "uint256",
          "name": "_quantity",
          "type": "uint256"
        },
        {
          "internalType": "enum PharmaceuticalSupplyChain.Participant",
          "name": "_currentLocation",
          "type": "uint8"
        }
      ],
      "name": "updateProduct",
      "outputs": [],
      "stateMutability": "nonpayable",
      "type": "function"
    },
    {
      "inputs": [
        {
          "internalType": "uint256",
          "name": "_productId",
          "type": "uint256"
        }
      ],
      "name": "getProduct",
      "outputs": [
        {
          "components": [
            {
              "internalType": "uint256",
              "name": "productId",
              "type": "uint256"
            },
            {
              "internalType": "string",
              "name": "name",
              "type": "string"
            },
            {
              "internalType": "string",
              "name": "manufacturer",
              "type": "string"
            },
            {
              "internalType": "uint256",
              "name": "quantity",
              "type": "uint256"
            },
            {
              "internalType": "enum PharmaceuticalSupplyChain.Participant",
              "name": "currentLocation",
              "type": "uint8"
            },
            {
              "internalType": "address",
              "name": "owner",
              "type": "address"
            }
          ],
          "internalType": "struct PharmaceuticalSupplyChain.Product",
          "name": "",
          "type": "tuple"
        }
      ],
      "stateMutability": "view",
      "type": "function",
      "constant": true
    },
    {
      "inputs": [
        {
          "internalType": "uint256",
          "name": "_shipmentId",
          "type": "uint256"
        }
      ],
      "name": "getShipment",
      "outputs": [
        {
          "components": [
            {
              "internalType": "uint256",
              "name": "shipmentId",
              "type": "uint256"
            },
            {
              "internalType": "uint256",
              "name": "productId",
              "type": "uint256"
            },
            {
              "internalType": "enum PharmaceuticalSupplyChain.Participant",
              "name": "origin",
              "type": "uint8"
            },
            {
              "internalType": "enum PharmaceuticalSupplyChain.Participant",
              "name": "destination",
              "type": "uint8"
            },
            {
              "internalType": "string",
              "name": "departureDate",
              "type": "string"
            },
            {
              "internalType": "string",
              "name": "expectedArrivalDate",
              "type": "string"
            }
          ],
          "internalType": "struct PharmaceuticalSupplyChain.Shipment",
          "name": "",
          "type": "tuple"
        }
      ],
      "stateMutability": "view",
      "type": "function",
      "constant": true
    }
  ],
  "bytecode": "0x60806040523480156200001157600080fd5b5060405180604001604052803373ffffffffffffffffffffffffffffffffffffffff1681526020016000600381111562000074577f4e487b7100000000000000000000000000000000000000000000000000000000600052602160045260246000fd5b815250600260003373ffffffffffffffffffffffffffffffffffffffff1673ffffffffffffffffffffffffffffffffffffffff16815260200190815260200160002060008201518160000160006101000a81548173ffffffffffffffffffffffffffffffffffffffff021916908373ffffffffffffffffffffffffffffffffffffffff16021790555060208201518160000160146101000a81548160ff021916908360038111156200014f577f4e487b7100000000000000000000000000000000000000000000000000000000600052602160045260246000fd5b02179055509050506000600190505b600a81116200028857620001f16200017c826200028f60201b60201c565b6040516020016200018e91906200098a565b6040516020818303038152906040526040518060400160405280600c81526020017f4d616e7566616374757265720000000000000000000000000000000000000000815250836064620001e29190620009c6565b6000336200047d60201b60201c565b6200027281600060016040518060400160405280600a81526020017f323032342d30312d3031000000000000000000000000000000000000000000008152506040518060400160405280600a81526020017f323032342d30312d3035000000000000000000000000000000000000000000008152506200062360201b60201c565b80806200027f9062000bb8565b9150506200015e565b5062000c93565b60606000821415620002d9576040518060400160405280600181526020017f3000000000000000000000000000000000000000000000000000000000000000815250905062000478565b600082905060005b6000821462000311578080620002f79062000bb8565b915050600a8262000309919062000a61565b9150620002e1565b60008167ffffffffffffffff81111562000354577f4e487b7100000000000000000000000000000000000000000000000000000000600052604160045260246000fd5b6040519080825280601f01601f191660200182016040528015620003875781602001600182028036833780820191505090505b50905060008290505b600086146200047057600181620003a8919062000afa565b90506000600a8088620003bc919062000a61565b620003c8919062000a99565b87620003d5919062000afa565b6030620003e3919062000a23565b905060008160f81b90508084848151811062000428577f4e487b7100000000000000000000000000000000000000000000000000000000600052603260045260246000fd5b60200101907effffffffffffffffffffffffffffffffffffffffffffffffffffffffffffff1916908160001a905350600a8862000466919062000a61565b9750505062000390565b819450505050505b919050565b60036000815480929190620004929062000bb8565b91905055506040518060c001604052806003548152602001868152602001858152602001848152602001836005811115620004f6577f4e487b7100000000000000000000000000000000000000000000000000000000600052602160045260246000fd5b81526020018273ffffffffffffffffffffffffffffffffffffffff1681525060008060035481526020019081526020016000206000820151816000015560208201518160010190805190602001906200055192919062000861565b5060408201518160020190805190602001906200057092919062000861565b506060820151816003015560808201518160040160006101000a81548160ff02191690836005811115620005cd577f4e487b7100000000000000000000000000000000000000000000000000000000600052602160045260246000fd5b021790555060a08201518160040160016101000a81548173ffffffffffffffffffffffffffffffffffffffff021916908373ffffffffffffffffffffffffffffffffffffffff1602179055509050505050505050565b60046000815480929190620006389062000bb8565b91905055506040518060c00160405280600454815260200186815260200185600581111562000690577f4e487b7100000000000000000000000000000000000000000000000000000000600052602160045260246000fd5b8152602001846005811115620006cf577f4e487b7100000000000000000000000000000000000000000000000000000000600052602160045260246000fd5b815260200183815260200182815250600160006004548152602001908152602001600020600082015181600001556020820151816001015560408201518160020160006101000a81548160ff0219169083600581111562000759577f4e487b7100000000000000000000000000000000000000000000000000000000600052602160045260246000fd5b021790555060608201518160020160016101000a81548160ff02191690836005811115620007b0577f4e487b7100000000000000000000000000000000000000000000000000000000600052602160045260246000fd5b02179055506080820151816003019080519060200190620007d392919062000861565b5060a0820151816004019080519060200190620007f292919062000861565b509050508260008087815260200190815260200160002060040160006101000a81548160ff0219169083600581111562000855577f4e487b7100000000000000000000000000000000000000000000000000000000600052602160045260246000fd5b02179055505050505050565b8280546200086f9062000b82565b90600052602060002090601f016020900481019282620008935760008555620008df565b82601f10620008ae57805160ff1916838001178555620008df565b82800160010185558215620008df579182015b82811115620008de578251825591602001919060010190620008c1565b5b509050620008ee9190620008f2565b5090565b5b808211156200090d576000816000905550600101620008f3565b5090565b60006200091e82620009b0565b6200092a8185620009bb565b93506200093c81856020860162000b4c565b80840191505092915050565b600062000957600783620009bb565b91507f50726f64756374000000000000000000000000000000000000000000000000006000830152600782019050919050565b6000620009978262000948565b9150620009a5828462000911565b915081905092915050565b600081519050919050565b600081905092915050565b6000620009d38262000b35565b9150620009e08362000b35565b9250827fffffffffffffffffffffffffffffffffffffffffffffffffffffffffffffffff0382111562000a185762000a1762000c06565b5b828201905092915050565b600062000a308262000b3f565b915062000a3d8362000b3f565b92508260ff0382111562000a565762000a5562000c06565b5b828201905092915050565b600062000a6e8262000b35565b915062000a7b8362000b35565b92508262000a8e5762000a8d62000c35565b5b828204905092915050565b600062000aa68262000b35565b915062000ab38362000b35565b9250817fffffffffffffffffffffffffffffffffffffffffffffffffffffffffffffffff048311821515161562000aef5762000aee62000c06565b5b828202905092915050565b600062000b078262000b35565b915062000b148362000b35565b92508282101562000b2a5762000b2962000c06565b5b828203905092915050565b6000819050919050565b600060ff82169050919050565b60005b8381101562000b6c57808201518184015260208101905062000b4f565b8381111562000b7c576000848401525b50505050565b6000600282049050600182168062000b9b57607f821691505b6020821081141562000bb25762000bb162000c64565b5b50919050565b600062000bc58262000b35565b91507fffffffffffffffffffffffffffffffffffffffffffffffffffffffffffffffff82141562000bfb5762000bfa62000c06565b5b600182019050919050565b7f4e487b7100000000000000000000000000000000000000000000000000000000600052601160045260246000fd5b7f4e487b7100000000000000000000000000000000000000000000000000000000600052601260045260246000fd5b7f4e487b7100000000000000000000000000000000000000000000000000000000600052602260045260246000fd5b61266c8062000ca36000396000f3fe608060405234801561001057600080fd5b50600436106100a95760003560e01c80634647f9da116100715780634647f9da146101695780637944608a146101875780637acc0b20146101a35780639c3eead9146101d8578063a87430ba146101f4578063b9db15b414610225576100a9565b8063092b3740146100ae5780631f16653b146100de5780632ac08a93146100fc57806337a79fb414610131578063396cf8d31461014d575b600080fd5b6100c860048036038101906100c39190611c50565b610255565b6040516100d59190612207565b60405180910390f35b6100e66104c8565b6040516100f39190612229565b60405180910390f35b61011660048036038101906101119190611c50565b6104ce565b604051610128969594939291906122b3565b60405180910390f35b61014b60048036038101906101469190611d20565b610634565b005b61016760048036038101906101629190611c79565b6108ee565b005b610171610c23565b60405161017e9190612229565b60405180910390f35b6101a1600480360381019061019c9190611bbd565b610c29565b005b6101bd60048036038101906101b89190611c50565b610ec8565b6040516101cf96959493929190612244565b60405180910390f35b6101f260048036038101906101ed9190611b81565b611041565b005b61020e60048036038101906102099190611b58565b611289565b60405161021c92919061211c565b60405180910390f35b61023f600480360381019061023a9190611c50565b6112da565b60405161024c91906121e5565b60405180910390f35b61025d6118cf565b600160008381526020019081526020016000206040518060c001604052908160008201548152602001600182015481526020016002820160009054906101000a900460ff1660058111156102da577f4e487b7100000000000000000000000000000000000000000000000000000000600052602160045260246000fd5b6005811115610312577f4e487b7100000000000000000000000000000000000000000000000000000000600052602160045260246000fd5b81526020016002820160019054906101000a900460ff166005811115610361577f4e487b7100000000000000000000000000000000000000000000000000000000600052602160045260246000fd5b6005811115610399577f4e487b7100000000000000000000000000000000000000000000000000000000600052602160045260246000fd5b81526020016003820180546103ad90612478565b80601f01602080910402602001604051908101604052809291908181526020018280546103d990612478565b80156104265780601f106103fb57610100808354040283529160200191610426565b820191906000526020600020905b81548152906001019060200180831161040957829003601f168201915b5050505050815260200160048201805461043f90612478565b80601f016020809104026020016040519081016040528092919081815260200182805461046b90612478565b80156104b85780601f1061048d576101008083540402835291602001916104b8565b820191906000526020600020905b81548152906001019060200180831161049b57829003601f168201915b5050505050815250509050919050565b60035481565b60016020528060005260406000206000915090508060000154908060010154908060020160009054906101000a900460ff16908060020160019054906101000a900460ff169080600301805461052390612478565b80601f016020809104026020016040519081016040528092919081815260200182805461054f90612478565b801561059c5780601f106105715761010080835404028352916020019161059c565b820191906000526020600020905b81548152906001019060200180831161057f57829003601f168201915b5050505050908060040180546105b190612478565b80601f01602080910402602001604051908101604052809291908181526020018280546105dd90612478565b801561062a5780601f106105ff5761010080835404028352916020019161062a565b820191906000526020600020905b81548152906001019060200180831161060d57829003601f168201915b5050505050905086565b826000600381111561066f577f4e487b7100000000000000000000000000000000000000000000000000000000600052602160045260246000fd5b600260003373ffffffffffffffffffffffffffffffffffffffff1673ffffffffffffffffffffffffffffffffffffffff16815260200190815260200160002060000160149054906101000a900460ff1660038111156106f7577f4e487b7100000000000000000000000000000000000000000000000000000000600052602160045260246000fd5b14806107c15750600380811115610737577f4e487b7100000000000000000000000000000000000000000000000000000000600052602160045260246000fd5b600260003373ffffffffffffffffffffffffffffffffffffffff1673ffffffffffffffffffffffffffffffffffffffff16815260200190815260200160002060000160149054906101000a900460ff1660038111156107bf577f4e487b7100000000000000000000000000000000000000000000000000000000600052602160045260246000fd5b145b8061082c57503373ffffffffffffffffffffffffffffffffffffffff1660008083815260200190815260200160002060040160019054906101000a900473ffffffffffffffffffffffffffffffffffffffff1673ffffffffffffffffffffffffffffffffffffffff16145b61086b576040517f08c379a0000000000000000000000000000000000000000000000000000000008152600401610862906121c5565b60405180910390fd5b82600080868152602001908152602001600020600301819055508160008086815260200190815260200160002060040160006101000a81548160ff021916908360058111156108e3577f4e487b7100000000000000000000000000000000000000000000000000000000600052602160045260246000fd5b021790555050505050565b60026003811115610928577f4e487b7100000000000000000000000000000000000000000000000000000000600052602160045260246000fd5b600260003373ffffffffffffffffffffffffffffffffffffffff1673ffffffffffffffffffffffffffffffffffffffff16815260200190815260200160002060000160149054906101000a900460ff1660038111156109b0577f4e487b7100000000000000000000000000000000000000000000000000000000600052602160045260246000fd5b146109f0576040517f08c379a00000000000000000000000000000000000000000000000000000000081526004016109e790612185565b60405180910390fd5b60046000815480929190610a03906124aa565b91905055506040518060c001604052806004548152602001868152602001856005811115610a5a577f4e487b7100000000000000000000000000000000000000000000000000000000600052602160045260246000fd5b8152602001846005811115610a98577f4e487b7100000000000000000000000000000000000000000000000000000000600052602160045260246000fd5b815260200183815260200182815250600160006004548152602001908152602001600020600082015181600001556020820151816001015560408201518160020160006101000a81548160ff02191690836005811115610b21577f4e487b7100000000000000000000000000000000000000000000000000000000600052602160045260246000fd5b021790555060608201518160020160016101000a81548160ff02191690836005811115610b77577f4e487b7100000000000000000000000000000000000000000000000000000000600052602160045260246000fd5b02179055506080820151816003019080519060200190610b98929190611975565b5060a0820151816004019080519060200190610bb5929190611975565b509050508260008087815260200190815260200160002060040160006101000a81548160ff02191690836005811115610c17577f4e487b7100000000000000000000000000000000000000000000000000000000600052602160045260246000fd5b02179055505050505050565b60045481565b60016003811115610c63577f4e487b7100000000000000000000000000000000000000000000000000000000600052602160045260246000fd5b600260003373ffffffffffffffffffffffffffffffffffffffff1673ffffffffffffffffffffffffffffffffffffffff16815260200190815260200160002060000160149054906101000a900460ff166003811115610ceb577f4e487b7100000000000000000000000000000000000000000000000000000000600052602160045260246000fd5b14610d2b576040517f08c379a0000000000000000000000000000000000000000000000000000000008152600401610d22906121a5565b60405180910390fd5b60036000815480929190610d3e906124aa565b91905055506040518060c001604052806003548152602001858152602001848152602001838152602001826005811115610da1577f4e487b7100000000000000000000000000000000000000000000000000000000600052602160045260246000fd5b81526020013373ffffffffffffffffffffffffffffffffffffffff168152506000806003548152602001908152602001600020600082015181600001556020820151816001019080519060200190610dfa929190611975565b506040820151816002019080519060200190610e17929190611975565b506060820151816003015560808201518160040160006101000a81548160ff02191690836005811115610e73577f4e487b7100000000000000000000000000000000000000000000000000000000600052602160045260246000fd5b021790555060a08201518160040160016101000a81548173ffffffffffffffffffffffffffffffffffffffff021916908373ffffffffffffffffffffffffffffffffffffffff16021790555090505050505050565b6000602052806000526040600020600091509050806000015490806001018054610ef190612478565b80601f0160208091040260200160405190810160405280929190818152602001828054610f1d90612478565b8015610f6a5780601f10610f3f57610100808354040283529160200191610f6a565b820191906000526020600020905b815481529060010190602001808311610f4d57829003601f168201915b505050505090806002018054610f7f90612478565b80601f0160208091040260200160405190810160405280929190818152602001828054610fab90612478565b8015610ff85780601f10610fcd57610100808354040283529160200191610ff8565b820191906000526020600020905b815481529060010190602001808311610fdb57829003601f168201915b5050505050908060030154908060040160009054906101000a900460ff16908060040160019054906101000a900473ffffffffffffffffffffffffffffffffffffffff16905086565b6000600381111561107b577f4e487b7100000000000000000000000000000000000000000000000000000000600052602160045260246000fd5b600260003373ffffffffffffffffffffffffffffffffffffffff1673ffffffffffffffffffffffffffffffffffffffff16815260200190815260200160002060000160149054906101000a900460ff166003811115611103577f4e487b7100000000000000000000000000000000000000000000000000000000600052602160045260246000fd5b14611143576040517f08c379a000000000000000000000000000000000000000000000000000000000815260040161113a90612165565b60405180910390fd5b60405180604001604052808373ffffffffffffffffffffffffffffffffffffffff1681526020018260038111156111a3577f4e487b7100000000000000000000000000000000000000000000000000000000600052602160045260246000fd5b815250600260008473ffffffffffffffffffffffffffffffffffffffff1673ffffffffffffffffffffffffffffffffffffffff16815260200190815260200160002060008201518160000160006101000a81548173ffffffffffffffffffffffffffffffffffffffff021916908373ffffffffffffffffffffffffffffffffffffffff16021790555060208201518160000160146101000a81548160ff0219169083600381111561127d577f4e487b7100000000000000000000000000000000000000000000000000000000600052602160045260246000fd5b02179055509050505050565b60026020528060005260406000206000915090508060000160009054906101000a900473ffffffffffffffffffffffffffffffffffffffff16908060000160149054906101000a900460ff16905082565b6112e26119fb565b81600260003373ffffffffffffffffffffffffffffffffffffffff1673ffffffffffffffffffffffffffffffffffffffff16815260200190815260200160002060000160149054906101000a900460ff166001600381111561136d577f4e487b7100000000000000000000000000000000000000000000000000000000600052602160045260246000fd5b8160038111156113a6577f4e487b7100000000000000000000000000000000000000000000000000000000600052602160045260246000fd5b1480156114465750600260058111156113e8577f4e487b7100000000000000000000000000000000000000000000000000000000600052602160045260246000fd5b60008084815260200190815260200160002060040160009054906101000a900460ff166005811115611443577f4e487b7100000000000000000000000000000000000000000000000000000000600052602160045260246000fd5b11155b80611560575060026003811115611486577f4e487b7100000000000000000000000000000000000000000000000000000000600052602160045260246000fd5b8160038111156114bf577f4e487b7100000000000000000000000000000000000000000000000000000000600052602160045260246000fd5b14801561155f575060036005811115611501577f4e487b7100000000000000000000000000000000000000000000000000000000600052602160045260246000fd5b60008084815260200190815260200160002060040160009054906101000a900460ff16600581111561155c577f4e487b7100000000000000000000000000000000000000000000000000000000600052602160045260246000fd5b11155b5b806115da575060038081111561159f577f4e487b7100000000000000000000000000000000000000000000000000000000600052602160045260246000fd5b8160038111156115d8577f4e487b7100000000000000000000000000000000000000000000000000000000600052602160045260246000fd5b145b8061165557506000600381111561161a577f4e487b7100000000000000000000000000000000000000000000000000000000600052602160045260246000fd5b816003811115611653577f4e487b7100000000000000000000000000000000000000000000000000000000600052602160045260246000fd5b145b611694576040517f08c379a000000000000000000000000000000000000000000000000000000000815260040161168b90612145565b60405180910390fd5b6000808581526020019081526020016000206040518060c0016040529081600082015481526020016001820180546116cb90612478565b80601f01602080910402602001604051908101604052809291908181526020018280546116f790612478565b80156117445780601f1061171957610100808354040283529160200191611744565b820191906000526020600020905b81548152906001019060200180831161172757829003601f168201915b5050505050815260200160028201805461175d90612478565b80601f016020809104026020016040519081016040528092919081815260200182805461178990612478565b80156117d65780601f106117ab576101008083540402835291602001916117d6565b820191906000526020600020905b8154815290600101906020018083116117b957829003601f168201915b50505050508152602001600382015481526020016004820160009054906101000a900460ff166005811115611834577f4e487b7100000000000000000000000000000000000000000000000000000000600052602160045260246000fd5b600581111561186c577f4e487b7100000000000000000000000000000000000000000000000000000000600052602160045260246000fd5b81526020016004820160019054906101000a900473ffffffffffffffffffffffffffffffffffffffff1673ffffffffffffffffffffffffffffffffffffffff1673ffffffffffffffffffffffffffffffffffffffff168152505092505050919050565b6040518060c00160405280600081526020016000815260200160006005811115611922577f4e487b7100000000000000000000000000000000000000000000000000000000600052602160045260246000fd5b815260200160006005811115611961577f4e487b7100000000000000000000000000000000000000000000000000000000600052602160045260246000fd5b815260200160608152602001606081525090565b82805461198190612478565b90600052602060002090601f0160209004810192826119a357600085556119ea565b82601f106119bc57805160ff19168380011785556119ea565b828001600101855582156119ea579182015b828111156119e95782518255916020019190600101906119ce565b5b5090506119f79190611a7f565b5090565b6040518060c001604052806000815260200160608152602001606081526020016000815260200160006005811115611a5c577f4e487b7100000000000000000000000000000000000000000000000000000000600052602160045260246000fd5b8152602001600073ffffffffffffffffffffffffffffffffffffffff1681525090565b5b80821115611a98576000816000905550600101611a80565b5090565b6000611aaf611aaa84612353565b612322565b905082815260208101848484011115611ac757600080fd5b611ad2848285612436565b509392505050565b600081359050611ae9816125e8565b92915050565b600081359050611afe816125ff565b92915050565b600081359050611b138161260f565b92915050565b600082601f830112611b2a57600080fd5b8135611b3a848260208601611a9c565b91505092915050565b600081359050611b528161261f565b92915050565b600060208284031215611b6a57600080fd5b6000611b7884828501611ada565b91505092915050565b60008060408385031215611b9457600080fd5b6000611ba285828601611ada565b9250506020611bb385828601611b04565b9150509250929050565b60008060008060808587031215611bd357600080fd5b600085013567ffffffffffffffff811115611bed57600080fd5b611bf987828801611b19565b945050602085013567ffffffffffffffff811115611c1657600080fd5b611c2287828801611b19565b9350506040611c3387828801611b43565b9250506060611c4487828801611aef565b91505092959194509250565b600060208284031215611c6257600080fd5b6000611c7084828501611b43565b91505092915050565b600080600080600060a08688031215611c9157600080fd5b6000611c9f88828901611b43565b9550506020611cb088828901611aef565b9450506040611cc188828901611aef565b935050606086013567ffffffffffffffff811115611cde57600080fd5b611cea88828901611b19565b925050608086013567ffffffffffffffff811115611d0757600080fd5b611d1388828901611b19565b9150509295509295909350565b600080600060608486031215611d3557600080fd5b6000611d4386828701611b43565b9350506020611d5486828701611b43565b9250506040611d6586828701611aef565b9150509250925092565b611d78816123b0565b82525050565b611d87816123b0565b82525050565b611d9681612412565b82525050565b611da581612412565b82525050565b611db481612424565b82525050565b6000611dc582612383565b611dcf818561238e565b9350611ddf818560208601612445565b611de8816125af565b840191505092915050565b6000611dfe82612383565b611e08818561239f565b9350611e18818560208601612445565b611e21816125af565b840191505092915050565b6000611e3960148361239f565b91507f416363657373206e6f74207065726d69747465640000000000000000000000006000830152602082019050919050565b6000611e7960228361239f565b91507f4f6e6c792061646d696e2063616e20706572666f726d2074686973206163746960008301527f6f6e0000000000000000000000000000000000000000000000000000000000006020830152604082019050919050565b6000611edf602e8361239f565b91507f4f6e6c79206c6f67697374696320656d706c6f7965652063616e20706572666f60008301527f726d207468697320616374696f6e0000000000000000000000000000000000006020830152604082019050919050565b6000611f4560258361239f565b91507f4f6e6c7920737570706c6965722063616e20706572666f726d2074686973206160008301527f6374696f6e0000000000000000000000000000000000000000000000000000006020830152604082019050919050565b6000611fab600e8361239f565b91507f4e6f7420617574686f72697a65640000000000000000000000000000000000006000830152602082019050919050565b600060c083016000830151611ff660008601826120fe565b506020830151848203602086015261200e8282611dba565b915050604083015184820360408601526120288282611dba565b915050606083015161203d60608601826120fe565b5060808301516120506080860182611d8d565b5060a083015161206360a0860182611d6f565b508091505092915050565b600060c08301600083015161208660008601826120fe565b50602083015161209960208601826120fe565b5060408301516120ac6040860182611d8d565b5060608301516120bf6060860182611d8d565b50608083015184820360808601526120d78282611dba565b91505060a083015184820360a08601526120f18282611dba565b9150508091505092915050565b61210781612408565b82525050565b61211681612408565b82525050565b60006040820190506121316000830185611d7e565b61213e6020830184611dab565b9392505050565b6000602082019050818103600083015261215e81611e2c565b9050919050565b6000602082019050818103600083015261217e81611e6c565b9050919050565b6000602082019050818103600083015261219e81611ed2565b9050919050565b600060208201905081810360008301526121be81611f38565b9050919050565b600060208201905081810360008301526121de81611f9e565b9050919050565b600060208201905081810360008301526121ff8184611fde565b905092915050565b60006020820190508181036000830152612221818461206e565b905092915050565b600060208201905061223e600083018461210d565b92915050565b600060c082019050612259600083018961210d565b818103602083015261226b8188611df3565b9050818103604083015261227f8187611df3565b905061228e606083018661210d565b61229b6080830185611d9c565b6122a860a0830184611d7e565b979650505050505050565b600060c0820190506122c8600083018961210d565b6122d5602083018861210d565b6122e26040830187611d9c565b6122ef6060830186611d9c565b81810360808301526123018185611df3565b905081810360a08301526123158184611df3565b9050979650505050505050565b6000604051905081810181811067ffffffffffffffff8211171561234957612348612580565b5b8060405250919050565b600067ffffffffffffffff82111561236e5761236d612580565b5b601f19601f8301169050602081019050919050565b600081519050919050565b600082825260208201905092915050565b600082825260208201905092915050565b60006123bb826123e8565b9050919050565b60008190506123d0826125c0565b919050565b60008190506123e3826125d4565b919050565b600073ffffffffffffffffffffffffffffffffffffffff82169050919050565b6000819050919050565b600061241d826123c2565b9050919050565b600061242f826123d5565b9050919050565b82818337600083830152505050565b60005b83811015612463578082015181840152602081019050612448565b83811115612472576000848401525b50505050565b6000600282049050600182168061249057607f821691505b602082108114156124a4576124a3612551565b5b50919050565b60006124b582612408565b91507fffffffffffffffffffffffffffffffffffffffffffffffffffffffffffffffff8214156124e8576124e76124f3565b5b600182019050919050565b7f4e487b7100000000000000000000000000000000000000000000000000000000600052601160045260246000fd5b7f4e487b7100000000000000000000000000000000000000000000000000000000600052602160045260246000fd5b7f4e487b7100000000000000000000000000000000000000000000000000000000600052602260045260246000fd5b7f4e487b7100000000000000000000000000000000000000000000000000000000600052604160045260246000fd5b6000601f19601f8301169050919050565b600681106125d1576125d0612522565b5b50565b600481106125e5576125e4612522565b5b50565b6125f1816123b0565b81146125fc57600080fd5b50565b6006811061260c57600080fd5b50565b6004811061261c57600080fd5b50565b61262881612408565b811461263357600080fd5b5056fea2646970667358221220e40de8d19b6f5bd5bf03292d1b2e1b46c80c4c7e9a10d4b410f6620fc3af743c64736f6c63430008000033",
  "immutableReferences": {},
  "source": "// SPDX-License-Identifier: MIT\npragma solidity ^0.8.0;\n\ncontract PharmaceuticalSupplyChain {\n    // Enum for user roles\n    enum Role { Admin, Supplier, LogisticEmployee, Inspector }\n\n    // Enum for supply chain participants\n    enum Participant { Supplier, Transporter, Manufacturer, LogisticWarehouse, Distributor, PharmaWarehouse }\n\n    // Struct for a product\n    struct Product {\n        uint productId;\n        string name;\n        string manufacturer;\n        uint quantity;\n        Participant currentLocation;\n        address owner;\n    }\n\n    // Struct for shipment details\n    struct Shipment {\n        uint shipmentId;\n        uint productId;\n        Participant origin;\n        Participant destination;\n        string departureDate;\n        string expectedArrivalDate;\n    }\n\n    // Struct for a user\n    struct User {\n        address userAddress;\n        Role role;\n    }\n\n    // Mapping for products and shipments\n    mapping(uint => Product) public products;\n    mapping(uint => Shipment) public shipments;\n\n    // Mapping for users\n    mapping(address => User) public users;\n\n    // Counters for product and shipment IDs\n    uint public productCounter;\n    uint public shipmentCounter;\n\n    // Modifiers\n    modifier onlyAdmin() {\n        require(users[msg.sender].role == Role.Admin, \"Only admin can perform this action\");\n        _;\n    }\n\n    modifier onlySupplier() {\n        require(users[msg.sender].role == Role.Supplier, \"Only supplier can perform this action\");\n        _;\n    }\n\n    modifier onlyLogisticEmployee() {\n        require(users[msg.sender].role == Role.LogisticEmployee, \"Only logistic employee can perform this action\");\n        _;\n    }\n\n    modifier onlyInspector() {\n        require(users[msg.sender].role == Role.Inspector, \"Only inspector can perform this action\");\n        _;\n    }\n\n    modifier onlyAuthorized(uint productId) {\n        require(\n            users[msg.sender].role == Role.Admin ||\n            users[msg.sender].role == Role.Inspector ||\n            products[productId].owner == msg.sender,\n            \"Not authorized\"\n        );\n        _;\n    }\n\n    modifier onlyViewableByRole(uint productId, Role role) {\n        require(\n            (role == Role.Supplier && products[productId].currentLocation <= Participant.Manufacturer) ||\n            (role == Role.LogisticEmployee && products[productId].currentLocation <= Participant.LogisticWarehouse) ||\n            (role == Role.Inspector) ||\n            (role == Role.Admin),\n            \"Access not permitted\"\n        );\n        _;\n    }\n\n    constructor() {\n        // Initializing the contract deployer as Admin\n        users[msg.sender] = User(msg.sender, Role.Admin);\n\n        // Pre-creating 10 products and their corresponding shipment details for demonstration\n        for (uint i = 1; i <= 10; i++) {\n            addProductInternal(\n                string(abi.encodePacked(\"Product\", uint2str(i))),\n                \"Manufacturer\",\n                100 + i,\n                Participant.Supplier,\n                msg.sender\n            );\n            addShipmentInternal(i, Participant.Supplier, Participant.Transporter, \"2024-01-01\", \"2024-01-05\");\n        }\n    }\n\n    // Internal function to add a new product (used for initial setup)\n    function addProductInternal(\n        string memory _name,\n        string memory _manufacturer,\n        uint _quantity,\n        Participant _currentLocation,\n        address _owner\n    ) internal {\n        productCounter++;\n        products[productCounter] = Product(productCounter, _name, _manufacturer, _quantity, _currentLocation, _owner);\n    }\n\n    // Internal function to add a new shipment (used for initial setup)\n    function addShipmentInternal(\n        uint _productId,\n        Participant _origin,\n        Participant _destination,\n        string memory _departureDate,\n        string memory _expectedArrivalDate\n    ) internal {\n        shipmentCounter++;\n        shipments[shipmentCounter] = Shipment(shipmentCounter, _productId, _origin, _destination, _departureDate, _expectedArrivalDate);\n        products[_productId].currentLocation = _destination;\n    }\n\n    // Function to add a new user\n    function addUser(address _userAddress, Role _role) public onlyAdmin {\n        users[_userAddress] = User(_userAddress, _role);\n    }\n\n    // Function to add a new product\n    function addProduct(\n        string memory _name,\n        string memory _manufacturer,\n        uint _quantity,\n        Participant _currentLocation\n    ) public onlySupplier {\n        productCounter++;\n        products[productCounter] = Product(productCounter, _name, _manufacturer, _quantity, _currentLocation, msg.sender);\n    }\n\n    // Function to add a new shipment\n    function addShipment(\n        uint _productId,\n        Participant _origin,\n        Participant _destination,\n        string memory _departureDate,\n        string memory _expectedArrivalDate\n    ) public onlyLogisticEmployee {\n        shipmentCounter++;\n        shipments[shipmentCounter] = Shipment(shipmentCounter, _productId, _origin, _destination, _departureDate, _expectedArrivalDate);\n        products[_productId].currentLocation = _destination;\n    }\n\n    // Function to update product details\n    function updateProduct(\n        uint _productId,\n        uint _quantity,\n        Participant _currentLocation\n    ) public onlyAuthorized(_productId) {\n        products[_productId].quantity = _quantity;\n        products[_productId].currentLocation = _currentLocation;\n    }\n\n    // Function to query product details based on role\n    function getProduct(uint _productId) public view onlyViewableByRole(_productId, users[msg.sender].role) returns (Product memory) {\n        return products[_productId];\n    }\n\n    // Function to query shipment details\n    function getShipment(uint _shipmentId) public view returns (Shipment memory) {\n        return shipments[_shipmentId];\n    }\n\n    // Helper function to convert uint to string\n    function uint2str(uint _i) internal pure returns (string memory) {\n        if (_i == 0) {\n            return \"0\";\n        }\n        uint j = _i;\n        uint len;\n        while (j != 0) {\n            len++;\n            j /= 10;\n        }\n        bytes memory bstr = new bytes(len);\n        uint k = len;\n        while (_i != 0) {\n            k = k - 1;\n            uint8 temp = (48 + uint8(_i - _i / 10 * 10));\n            bytes1 b1 = bytes1(temp);\n            bstr[k] = b1;\n            _i /= 10;\n        }\n        return string(bstr);\n    }\n}\n",
  "sourcePath": "/Users/iroliakakou/pharma-supply-chain/contracts/PharmaceuticalSupplyChain.sol",
  "compiler": {
    "name": "solc",
    "version": "0.8.0+commit.c7dfd78e.Emscripten.clang"
  },
  "schemaVersion": "3.4.16",
  "updatedAt": "2024-07-26T13:49:16.793Z",
  "networkType": "ethereum",
  "devdoc": {
    "kind": "dev",
    "methods": {},
    "version": 1
  },
  "userdoc": {
    "kind": "user",
    "methods": {},
    "version": 1
  }
}